:10000000800012081E12080078009000347A401216
:100010000888E8F91208EC1208BA08B810F47A80D7
:100020001208887A001208BA7A811208887A0112B6
:1000300008BA80FE0A0A110408121F000E001F0AE7
:040040000A0A110097
:0B0800007A011208887A021208882290
:08080B007B3000DBFEDCF9226A
:0B0813007C647B30DBFEDCFADDF622AB
:10081E007C9612080B7A381208747C2912080B7A0F
:10082E00381208747C0A12080B7A381208747A2867
:10083E001208747A281208747A881208747A0812C8
:10084E0008747A881208747A081208747A181208D2
:10085E00747A081208747A681208747A0812087486
:10086E007AC812087422C2A2C2A1D2A38AA0C2A3BD
:0A087E00D2A1D2A27C1412080B22B2
:10088800C2A2C2A1D2A3EA54F02408F5A0C2A3D2FE
:10089800A1D2A27C1412080BC2A2C2A1D2A3EA540C
:1008A8000FC42408F5A0C2A3D2A1D2A27C141208B6
:0208B8000B2211
:1008BA00C2A2D2A1D2A3EA54F0240AF5A0C2A3D2BA
:1008CA00A1D2A27C1412080BC2A2D2A1D2A3EA54CA
:1008DA000FC4240AF5A0C2A3D2A1D2A27C14120882
:0208EA000B22DF
:0408EC00E993FA2270
:00000001FF
