:0B0800007A011208887A021208882290
:08080B007B3000DBFEDCF9226A
:0B0813007C647B30DBFEDCFADDF622AB
:10000000800012081E1208007A801208887A4112B5
:1000100008BA12080B7AC01208887A461208BA8009
:01002000FEE1
:10081E007C9612080B7A341208747C2912080B7A13
:10082E00381208747C0A12080B7A341208747A246F
:10083E001208747A241208747A841208747A0412D4
:10084E0008747A841208747A041208747A141208DE
:10085E00747A041208747A641208747A0412087492
:10086E007AC412087422C2A1C2A0D2A28AA0C2A2C5
:0A087E00D2A0D2A17C1412080B22B4
:10088800C2A1C2A0D2A2EA54F02404F5A0C2A2D206
:10089800A0D2A17C1412080BC2A1C2A0D2A2EA5411
:1008A8000FC42404F5A0C2A2D2A0D2A17C141208BD
:0208B8000B2211
:1008BA00C2A1D2A0D2A2EA54F02405F5A0C2A2D2C3
:1008CA00A0D2A17C1412080BC2A1D2A0D2A2EA54CF
:1008DA000FC42405F5A0C2A2D2A0D2A17C1412088A
:0208EA000B22DF
:00000001FF
